:0200000460009A
:1000000000000000000000000000000000000000F0
:1000100000000000000000000000000000000000E0
:1000200000000000000000000000000000000000D0
:1000300000000000000000000000000000000000C0
:100400004643464200040156000000000103030079
:1004100000000000000000000000000000000000DC
:1004200000000000000000000000000000000000CC
:1004300000000000000000000000000000000000BC
:1004400000000000000406000000000000000000A2
:10045000000000010000000000000000000000009B
:10046000000000000000000000000000000000008C
:10047000000000000000000000000000000000007C
:10048000EB04180A063204260000000000000000F9
:10049000000000000000000000000000000000005C
:1004A000000000000000000000000000000000004C
:1004B000000000000000000000000000000000003C
:1004C000000000000000000000000000000000002C
:1004D000000000000000000000000000000000001C
:1004E000000000000000000000000000000000000C
:1004F00000000000000000000000000000000000FC
:1005000000000000000000000000000000000000EB
:1005100000000000000000000000000000000000DB
:1005200000000000000000000000000000000000CB
:1005300000000000000000000000000000000000BB
:1005400000000000000000000000000000000000AB
:10055000000000000000000000000000000000009B
:10056000000000000000000000000000000000008B
:10057000000000000000000000000000000000007B
:10058000000000000000000000000000000000006B
:10059000000000000000000000000000000000005B
:1005A000000000000000000000000000000000004B
:1005B000000000000000000000000000000000003B
:1005C000000100000010000000000000000000001A
:1005D000000001000000000000000000000000001A
:1005E000000000000000000000000000000000000B
:1005F00000000000000000000000000000000000FB
:1006000000000000000000000000000000000000EA
:1006100000000000000000000000000000000000DA
:10100000D10020410020006000000000000000002E
:1010100020100060001000600000000000000000D0
:10102000000000609CA5000000000000FFFFFFFF23
:1010300000000000000000000000000000000000B0
:1010400000000000000000000000000000000000A0
:101050000000000000000000000000000000000090
:101060000000000000000000000000000000000080
:10200000C0A320209D3B0060D77B0060893B00601F
:10201000893B0060893B0060893B00600000000054
:10202000000000000000000000000000A53C00606F
:10203000893B006000000000713C0060854B00603F
:10204000153E0060153E0060153E0060153E0060C4
:10205000153E0060153E0060153E0060153E0060B4
:10206000153E0060153E0060153E0060153E0060A4
:10207000153E0060153E0060153E0060153E006094
:10208000153E0060153E0060153E0060153E006084
:10209000153E0060153E0060153E0060153E006074
:1020A000153E0060153E0060153E0060153E006064
:1020B000153E0060153E0060153E0060153E006054
:1020C000153E0060153E0060153E0060153E006044
:1020D000153E0060153E0060153E0060153E006034
:1020E000153E0060153E0060153E0060153E006024
:1020F000153E0060153E0060153E0060153E006014
:10210000153E0060153E0060153E0060153E006003
:10211000153E0060153E0060153E0060153E0060F3
:10212000153E0060153E0060153E0060153E0060E3
:10213000153E0060153E0060153E0060153E0060D3
:10214000153E0060153E0060153E0060153E0060C3
:10215000153E0060153E0060153E0060153E0060B3
:10216000153E0060153E0060153E0060153E0060A3
:10217000153E0060153E0060153E0060153E006093
:1021800053B94AB9002908BF00281CBF4FF0FF31DE
:102190004FF0FF3000F00CB8ADF1080C6DE904CE43
:1021A00000F008F8DDF804E0DDE9022304B0704730
:1021B000704700BF2DE9F04786468C460846089ECA
:1021C000154674461946002B40F0C2808542B2FA8B
:1021D00082F245D94AB1C2F1200300FA02FC2EFA7C
:1021E00003F3954043EA0C0C94404FEA154EA8B215
:1021F000BCFBFEF8230C0EFB18CC08FB00F943EAED
:102200000C43994528D9EB1808F1FF3704D29945BA
:1022100002D9A8F102072B44A3EB0903A4B2B3FB34
:10222000FEFC0EFB1C330CFB00F044EA0344A0420E
:1022300014D92C190CF1FF3304D2A04202D9ACF10D
:1022400002032C44241A43EA07401EB1D440002361
:1022500034607360BDE8F0874746DDE76346F1E729
:1022600092BB431B01214FEA154EAFB2B3FBFEFCFC
:10227000200C0EFB1C330CFB07F840EA0343984587
:1022800062D9EB180CF1FF3004D2984502D9ACF1B9
:1022900002002B44A3EB0803A4B2B3FBFEFC0EFB2D
:1022A0001C330CFB07F744EA0344A7424ED92C1910
:1022B0000CF1FF3304D2A74202D9ACF102032C4443
:1022C000E41B43EA0040C0E7C2F1200320FA03F117
:1022D000954090402EFA03F303434FEA154EAFB2F8
:1022E000B1FBFEFC0EFB1C10190C0CFB07F841EABD
:1022F0000041884504FA02F422D969180CF1FF3034
:1023000004D2884502D9ACF102002944A1EB0801AE
:102310009BB2B1FBFEFC0EFB1C110CFB07F743EA62
:1023200001439F420ED9EB180CF1FF3104D29F42BA
:1023300002D9ACF102012B44DB1B41EA004192E7D8
:102340006046E3E76146F7E76046A3E76346B7E721
:10235000834206D916B9002108467BE7C6E900E0AA
:10236000F9E7B3FA83F78FB9834201D3724508D8EE
:10237000BEEB020460EB030301209C461EB9002162
:1023800068E73846FAE7C6E9004CF8E7C7F1200CE1
:10239000BB4022FA0CF41C432EFA0CF120FA0CF389
:1023A000B84001434FEA14490EFA07F5B3FBF9F8B8
:1023B0001FFA84FE09FB18300B0C08FB0EFA43EAE7
:1023C00000439A4502FA07F240D9E31808F1FF30BA
:1023D00004D29A4502D9A8F102002344A3EB0A03D0
:1023E00089B2B3FBF9F809FB183308FB0EFE41EA8A
:1023F00003418E452CD9611808F1FF3304D28E4574
:1024000002D9A8F10203214443EA0040A0FB02984C
:10241000A1EB0E014145CE46434602D306D14D45C0
:1024200004D2B9EB020E68EB04030138002EA6D0EB
:10243000B5EB0E0261EB030101FA0CFC22FA07F383
:102440004CEA0303F940C6E9003198E74046C5E786
:102450004346D9E7034613F8012B002AFBD1181A8B
:1024600001387047F8B5174D284606F0A4FD04461C
:1024700030B32A692846A968136823F01003136053
:102480004FF420220B6804219847002818DB0E4FD8
:102490000E4EAB68102128465B69984700280FDB79
:1024A00084F001040A4814F0FF0414BF3946314691
:1024B00004F012FD002141F2883004F0BFFAE8E791
:1024C0000020F8BD0097006036A0006039A00060D1
:1024D0003DA00060014B1B68184700BF70822020A0
:1024E000014B1860704700BF7082202030B585B066
:1024F00004460D4610220021684607F025F8022305
:102500002A4621468DF802306846034B019304F0B9
:10251000F5FC05B030BD00BFD524006080B5054690
:102520000E461746984604F0A5FADFF820900346B9
:1025300007F076F80446424649F8003039463046FE
:10254000A84754F8090001F041FB00BF0800000053
:10255000C3B2820E03F18043202A03F57C2330B5F9
:10256000C0F304251C68C0F34C3001FA05F100FAF1
:1025700005F081EA040100EA010080EA0400186025
:1025800005D00123024993408A6C1A42FCD130BD28
:1025900000C00F4008B501F07DFC01F04DFC244B5C
:1025A000244A012124481A604FF40042234B1A6048
:1025B000FFF7CEFF01212248FFF7CAFF214AD36867
:1025C00023F01F0343F01203D3601368002BFCDADF
:1025D0001D4802F02FFC00211C48FFF7B9FF032122
:1025E0001B48FFF7B5FF03211A48FFF7B1FF002191
:1025F0001348FFF7ADFF00211748FFF7A9FF00219F
:102600001648FFF7A5FF1649002002F0EFFB14491A
:10261000002002F0A1FB134A0649022006F0D3F87D
:10262000114A0020536D23F00303536508BD00BF1A
:10263000BC90202000366E01186C0080B8902020DD
:1026400014390014000008404CA0006014EA000493
:1026500014680080187200802466008024E00780DF
:1026600000389C1CE482202000C00F4008B502F016
:1026700025FE044BE5225A641A6C42F004021A64E7
:1026800008BD00BF00C00A40014B03600020704736
:102690000C9A00600C4BF0B40C4E5F6A0C4BB342CA
:1026A00003D36FF08500F0BC70475D68BD4209D36D
:1026B0001C693CB195F802C00579AC4502D12346AE
:1026C000F0BC18472433EAE7F08C2020288420202F
:1026D000048420202DE9F04705460E461746124C8B
:1026E000DFF84880DFF84890444503D36FF0850059
:1026F000BDE8F0876268D9F824309A4212D3A36902
:1027000083B190782979884205D13A4631462846E6
:10271000BDE8F04718475279012A03D13A463146BD
:10272000284698472434DFE704842020288420208A
:10273000F08C20202DE9F04105460E4617460A4C44
:10274000DFF82880444502D36FF0850009E0636913
:102750000BB92434F6E73A46314628469847002814
:10276000F7D1BDE8F08100BF048420202884202018
:1027700010B5044601F0C4FF10F1780F00D050B935
:10278000054A204605F09BF8D2F8C43023EA00033E
:102790000020C2F8C43010BDF08C2020024B002273
:1027A0001A605A60704700BFAB8D202070B50B4B8C
:1027B0000B4CA34201D3002070BD196A00221E7F7A
:1027C0000439D5B2AE4201D82433F2E7013211F810
:1027D00032508542F5D10120EEE700BF048420206D
:1027E00028842020094808B50378C3F341130A332D
:1027F00050F823303BB100F1080200F11001984776
:10280000C043C00F08BD1846FCE700BFF08C202075
:1028100004282DE9F14F04460F46DFF8949016D0B6
:1028200001282DD1DFF88C8098F8B93043B3224DC0
:1028300000F0D6FD4D4520D2D5F820B04FF0000A6B
:102840002B7F5FFA8AF6B34204D82435F2E7FFF70C
:10285000A5FFE7E70BEBC6060AF1010A307901F0A4
:102860004FFF0246307905F02AF8D8F8C430002A24
:1028700023EA0003C8F8C430E2DA002388F8B9304C
:102880000D4D4D4508D30B4B1B6A6BB139462046A5
:1028900001B0BDE8F04F1847EB681BB13A4621463E
:1028A000284698472435ECE701B0BDE8F08F00BF1B
:1028B00028842020F08C20200484202073B5C4B20A
:1028C0000D4663068DF8074007D02046FFF76EFFE0
:1028D00078B10D4B93F8BA0058B10B4E204655B164
:1028E00001F056FEF3691BB10DF10701082098476E
:1028F000012002B070BD01F069FEF369002BF7D032
:102900000DF107010920F2E7F08C202073B58678DD
:102910001E4C8DF800600379427943EA0223ADF83A
:102920000230C378304603F003038DF8043004F01E
:10293000C6FFD4F8C430054618420BD0304600F02C
:1029400031FD3046FFF714FF06F065FC10B9962004
:1029500006F03AFD684601F0A9FD10F1780F03D0AA
:1029600010B1002002B070BD9DF8000001F08EFE95
:1029700010F1780F01D00028F3D1D4F8C430012031
:102980002B4384F8B900C4F8C430EBE7F08C202066
:102990002DE9F047924D04460E461746AB69C3B980
:1029A000207800F01F00012876D0022800F0DC809B
:1029B00000BB94F900103A68002963782EDA062BE0
:1029C0000CD0082B25D0ABB9537001231370022310
:1029D00003E198470028E3D100200DE06388190A3D
:1029E0000A1F8C46012A05D9072903D8DAB26B6A77
:1029F0001C781CB96FF01500BDE8F0875D7865455F
:102A000003D1824200F0E48001302344F0E71B78D8
:102A1000E3E095F8BA3013700123DEE0052B11D006
:102A2000092BE7D163886E6A002B32D1FFF7B6FE1F
:102A3000638885F8BA30EB69002BCDD06949032053
:102A40009847C9E7A07801F01DFD0028C4D0D1E760
:102A50007378042B10D0052B11D0022B04D1777979
:102A60006388BB4208BF012033781E443378002BB3
:102A7000EED10028BED0D9E796F80380F4E763884A
:102A8000BB42F1D1B8F1000FEED13046FFF73EFF67
:102A9000EAE7FF27B846E9E795F8BA30D7F800C06B
:102AA000002BA7D06F6AA28894F804E03B46187800
:102AB00000289FD05978022904D193F80480F0456A
:102AC00000F292800344F2E78CF800308CF8013079
:102AD000316081E71F4493E00B2B8BD100264FF030
:102AE000FF08B246C14606E07B78042B0FD0052BC9
:102AF00021D03B781F443B78002BF5D1EB6913B113
:102B0000514607209847002E7FF466AF72E797F88A
:102B10000280A38897F803909845EAD16388994585
:102B2000E7D1B8F1070F1CD805EB0803BA46012618
:102B300083F8BB90DDE7A3884345DAD1A3784B4502
:102B40000AD0BE78304600F02DFC3046FFF710FE6C
:102B5000B0FA80F67609CCE73846FFF7D7FE06468E
:102B6000C7E7BA460026C4E794F900206378002A34
:102B700018DA002B7FF43EAF24793F6863060AD051
:102B80002046FFF713FE00283FF434AF95F8BA3023
:102B9000002B3FF42FAF3946204601F051FD0023B2
:102BA0007B7014E7012B08D0032B7FF423AF6388DD
:102BB000002B7FF41FAF012103E0618800297FF41F
:102BC00019AFA088FFF77AFE00287FF405AF11E760
:102BD00002293B607FF41BAF5B883360FCE600BFDB
:102BE000F08C2020AA8D202094F900006378002822
:102BF000BFF672AF002B3FF467AF0A2B7FF4FAAE3B
:102C00003B78002B3FF4F6AE797804297FF462AF6D
:102C1000B9788A427FF45EAF072A96BF5219002323
:102C200092F8BB308CF80030F6E600BF13B5164CB6
:102C3000237DF3B9E26801ABA1688020019204F022
:102C40004DFE019AA3681344A360E3689B1AE360F6
:102C50006BB962B12369E2889A4208DD94F8C82012
:102C600093FBF2F102FB11330BB90123237502B080
:102C700010BD002380201A461946237502B0BDE816
:102C8000104001F06BBD00BFF08C202030B5002358
:102C900085B002460D460193002858D1002935D150
:102CA00008220B460DEB020104F0DCFF002804DAD9
:102CB000802001F06DFC05B030BD2A4C029ABDF8B1
:102CC0000E302260039A2575626004F13802A2601A
:102CD0009DF90820002AC4E903550ADB802B04D99A
:102CE000802001F055FC0020E3E713B1C4E9033371
:102CF000E1E7FFF777FD0028DAD0E28823699A42FE
:102D0000D4BFE260E360FFF791FFD4E7154C01AB5D
:102D1000D4E90215002D04DC04F0A4FF0028CADA6F
:102D2000C6E72A4604F09EFF0028D9DB019AA36873
:102D30001344A360E3689B1AE360002BBBD104F14A
:102D40003803A360FFF74EFD0028DCD1B0E78028F0
:102D5000B1D1044BDA68002AD5D11B7D002BD2D12A
:102D6000A9E700BFF08C2020054B064A58620020DE
:102D70009A62054ADA62054A1A63054A9A617047FF
:102D8000F08C202091290060952600603527006096
:102D9000D52600602DE9F3410446474D4FF0FF333F
:102DA0004FF0FF32454803F0EBF895F8B830002BB0
:102DB0007BD16B6A83B142482C62E8616E6A01F094
:102DC000B5FD01F031FB041E10DA3C4803F050F968
:102DD000204602B0BDE8F08100F0C0F8FFF7C4FF64
:102DE0006B6A002BE7D14FF0FF34EEE700F01AFBDF
:102DF000041EEADB7378012B5AD1F379002B57D0EC
:102E00000026684685F8C830ADF802308DF80460B9
:102E10008DF8006001F04AFB041ED6DB802768466F
:102E20008DF8007001F042FB041ECEDB25493046D0
:102E300001F062FD041EC8DB2249384601F05CFD4A
:102E4000041EC2DB204CDFF8848044451AD30020E6
:102E500001F01CFC041EB8DBD5F8C430802043F020
:102E60000103C5F8C43001F011FC041EADDBD5F838
:102E7000C430002443F48033C5F8C430012385F8FE
:102E8000B830A2E7276A0026227FF3B29A4201D81F
:102E90002434DAE707EBC30257F833100136107910
:102EA00001F02AFD0028EFD09DE76FF077048CE752
:102EB0006FF0150489E700BFF08C20200C832020E0
:102EC000112800608D2C006004842020288420209C
:102ED00030B5204B8BB003F1100505AA18680833F4
:102EE00053F8041C1446AB4203C42246F6D11B78A7
:102EF0001022002101A8237006F026FB12220021D7
:102F0000154806F021FB102101A801F099FD0028C9
:102F10001DDD082801AB1049B8BF082009381A1870
:102F2000002012F8013F0AAC0130023104EB131407
:102F300003F00F03082803F1280314F8144C6B4422
:102F400001F8024C13F8143C01F8013CE9D10248A5
:102F50000BB030BD67A0006095912020734B2DE928
:102F6000F04F93F800B087B0BBF1000F03D070486A
:102F700007B0BDE8F08F6E4C00264FF0011AB04646
:102F80003546B14623783BB902346A4B9C42F3D1B3
:102F90000123664A1370EAE76378052B1BD8DFE844
:102FA00003F08C03C28C1D39402304A88DF810B0A7
:102FB000ADF812308DF814B004F041FE40B1082392
:102FC00004A8ADF8123004F03AFE08B1ADF812B022
:102FD000BDF81230E37123781C44D3E7E378002B6B
:102FE000F9D1A3786BB108F101085FFA88F8F2E72C
:102FF0006B689C4207D024354F4B9D42F8D300208C
:10300000B6E74E4DF8E7AB68002BECD041462046C2
:103010009847E8E7002DF2D000222B7F9A42EED2AB
:10302000296AA07801EBC2010B79984201D00132E4
:10303000F3E70127E078FBB200F003008DF81400FD
:10304000207994F805C040EA0C20ADF8120094F9FC
:103050000200002826DA07F110004FF0010C0CFAEC
:1030600000F010EA0A0F24D143F080008DF8100020
:1030700004A80192CDE9021304F0E1FD039BDDE910
:103080000121B0B99DF8102012F0800FA2700A71D2
:103090004FF0010217BF1033BA40DBB29A404AEA40
:1030A000020A98E70120B84010EA0A0F01D1184639
:1030B000DCE70137102FBDD1B9E7032E1BD1FFF795
:1030C00007FF074658B1FFF7C5F9024638B1102887
:1030D000394604F10200A8BF102206F027FA23782F
:1030E0006FF00201E218091B04EB5303D14213D520
:1030F0000136F6B26FE7002EF1D1B9F1000F3FF4BF
:103100007EAFA4EB090389F8048089F80230C3F389
:10311000072389F80330EBE702F801BC13F8010933
:1031200002F8020DE2E7A14655E700BF9491202086
:10313000488320200184202028842020048420200B
:10314000084B00211A4610B51C78844204D15C68F3
:1031500014B102EB811010BD013140330429F3D1C9
:103160000020F8E7BC8D20202DE9F34150F8283CE1
:10317000044610F82C6C10330AD1036950F8202C47
:10318000980736D5D2B9590715D5002344F8283CFD
:1031900054F8283C10330BD054F8148C54E90775BC
:1031A00006F039F800284FD021462E4806F017F8CF
:1031B00002B0BDE8F08143F00403236101AB54F891
:1031C000241C304604F08AFB10B16FF01503DDE7D4
:1031D000019A54F8243C134444F8243C54F8203C0D
:1031E0009B1A44F8203C54F81C3C134444F81C3C03
:1031F000CEE701AB54F8241C304601F0E1FA002878
:10320000E3D1019D54F8243C2B4444F8243C54F869
:10321000203C5B1B44F8203C54F81C3C2B4444F8F5
:103220001C3C002DB1D0304601F086FBB5FBF0F31D
:1032300003FB1055002DA8D154F8203C002BA4D03E
:10324000304601F01FFBA3E744F8180CA4F110006E
:1032500002F04AFF002DABD0424639463046A8471F
:10326000A6E700BF008A20204B1E012B73B506463F
:103270000D460FD8FFF764FF044668B9012D09D148
:1032800001AB01220DF10301304601F099FA019BD7
:10329000002BF5D102B070BD05F0BDFF04F12C018B
:1032A00008B1012D05D1084602B0BDE87040FFF716
:1032B0005BBF034802B0BDE8704005F090BF00BF9F
:1032C000008A20202DE9F74F0646154698460191C1
:1032D00004F04DFB044600285BD1EFF3118A102364
:1032E00083F31288BFF36F8FDFF8ACB000220023A6
:1032F000584602F01DFF70B9DFF8A090A70109EB56
:103300008414636813F1100F14D10193584602F02E
:10331000EBFE019B06E001340BF1400B042CE5D1E0
:103320006FF00B038AF31188BFF36F8F184603B059
:10333000BDE8F08F019B2061304609F80760C4F8B2
:103340003C80C4E902350C9B63610D9BA3616FF067
:103350000F03636001F0F0FA58B1304601F0ECFA67
:10336000B5FBF0F303FB10551DB1E36B43F0040311
:10337000E36318F0020F07D007F12C010848494415
:1033800005F02DFF0023CDE7304601F07BFA034620
:10339000C8E76FF00F03C9E7D88D2020BC8D20202F
:1033A000008A202010B5EFF31184102383F31288D4
:1033B000BFF36F8FFFF7C4FE50B14368103307D1DE
:1033C0006FF08B0300F12C014360044805F007FF08
:1033D00084F31188BFF36F8F10BD00BF008A2020D7
:1033E000F8B50E4C04251027EFF3118687F31288E9
:1033F000BFF36F8F6368103307D16FF08B0304F155
:103400002C010748636005F0EAFE86F31188BFF3DC
:103410006F8F013D04F14004E6D1F8BDBC8D202042
:10342000008A202070B5094C0025094E31462046FF
:1034300005F0B9FE01220135A4F110004034114617
:1034400005F075FE042DF1D1002070BDE88D20201F
:103450006931006070B504460E460179154615487D
:1034600004F062FA10B394F900206378002A16DBA6
:10347000202B04D0222B0ED06FF085000AE02B68A1
:103480001A6840F8102C9A8820F80C2C9B7900F8C8
:103490000A3C002070BD638800F8093CF9E7212B45
:1034A000EAD11038072328603360F2E76FF012008A
:1034B000F0E700BFBC8E20200146044808B504F0A8
:1034C00040FA10B1012300F8073C08BDBC8E202053
:1034D0000169012381F84B300B6833B191F8493011
:1034E0001BB10831014805F07ABE7047008A2020E0
:1034F0000169012381F84A300B6833B191F84830F3
:103500001BB10831014805F06ABE7047008A2020CF
:10351000012370B582F848300D46136814463BB15C
:1035200092F84A3023B102F108010D4805F057FE28
:10353000D4F850321A699B689A4205D17DB904F1DA
:1035400018014FF47A7204E004F11801002DF8D04C
:10355000002200230248BDE8704002F047BF70BD62
:10356000008A202070B5056995F85E02E0B195F8F3
:103570005F32D3B985F84830EFF31186102383F317
:103580001288BFF36F8FD5F8500204F024F9044677
:1035900086F31188BFF36F8F0022002305F1180115
:1035A000034802F023FF204670BD0020FCE700BF67
:1035B000008A202000210D4A0346A0F84810106818
:1035C00083F85C12C3F8540290889279A3F85802E9
:1035D00003F14C0083F85A224FF4007283F85B1217
:1035E000A3F85E1283F8601205F0AEBFD8990060B0
:1035F000F0B5D0F84C3285B004465B681B6A1F7D7D
:10360000384604F0B4F9064608BB94F84632F3B1E4
:103610004FF4806203A9D4F8380204F0FBF80546A1
:10362000A8B1C0F3080384F8306003B9451EA4F1C3
:10363000180303992A4638460193064B0093022348
:10364000FFF740FE2946D4F8380204F002F905B02D
:10365000F0BD00BF1135006010B500230469C4F847
:10366000683204F51A720B4BC4F86402596869B9E0
:10367000C3E9002204F10800074905F094FD04F1B4
:103680001800064905F0BBFD002010BD0A605A6015
:10369000F0E700BFBC8E202099790060F135006012
:1036A00030B54FF40033426885B0056942F2A1009D
:1036B0000B4CADF80C1001A9CDE90103002385F8EE
:1036C0005D32106A0A22007904F008F995F85D323B
:1036D00023B9012005F05FFC013CF7D105B030BDF6
:1036E000A186010073B50023046910258DF8071029
:1036F00084F84830EFF3118685F31288BFF36F8F9B
:1037000001220DF10701D4F8500204F064F886F3A9
:103710001188BFF36F8F01280AD005F07CFD10B926
:1037200094F861326BB9094B1A780AB901221A7000
:103730000A22002304F11801054802F057FE02B0E6
:1037400070BD00210A2003F079F9D3E7A79120206A
:10375000008A202037B514460A1E054621DD04F1F3
:103760004C01D4F84C0204F036F8012384F84930B7
:1037700023683BB194F84B3023B104F108011148A0
:1037800005F02DFDD4F84C124B684A699A1ACB69A2
:103790009B1AB3F5007F04D2012384F8603203B092
:1037A00030BD94F85E32002BF9D0074B4FF4007215
:1037B00004F14C012846009301230194FFF782FD98
:1037C000EDE700BF008A20205537006073B50D4635
:1037D00001461C4804F09DF810B30368691EA0F56B
:1037E00019745E6805291BD8DFE801F01C1A031C58
:1037F000222694F85E1299B90123224684F85E329B
:10380000336A187BFFF7A6FF94F8482042B9336A61
:103810001146187D0C4B019400930223FFF752FDD3
:1038200002B070BD204602B0BDE87040FFF7C2BED6
:10383000012384F85F32F3E794F85F32002BEFD076
:103840000023F6E7BC8E20201135006037B5094D06
:1038500000244FF0FF334FF480620749284600945C
:1038600002F086FD0549284605F0DBFC204603B042
:1038700030BD00BF008A2020C091202086A00060BB
:1038800030BFFFF7FDBF00BF2DE9F0410B4E0546ED
:10389000DFF82C80324606EB0807CC1B094920468E
:1038A00005F044FEA019083C4246002105F04CFEFC
:1038B00007F108002C67BDE8F08100BF00000000A0
:1038C00004000000D0990060074A936893F90E1035
:1038D000002907DB5269934204D0044A536843F03D
:1038E00080535360704700BF5C91202000ED00E0E2
:1038F000264B70B515469A6A064612F0100F9A6A62
:1039000014BF1124102412F0080F9A6A18BF122451
:1039100092070AD5586B9A6A140634D519B19A6A77
:1039200022F080029A62132401E06FF01500174B19
:103930009A6A12F0010F9A6A18BF142412F0200F2D
:103940009A6A18BF1524D20602D49B6A9B070AD52F
:103950000E4B5B68190506D5314600F011FA10B11F
:1039600080F309880224094B9A6A920603D55A6AA1
:1039700022F400525A629A6A204642F0FF029A628A
:1039800000232B7070BD6FF01500CCE700ED00E058
:10399000134B9A6A12F0007F9A6A14BF1E201D20F2
:1039A00012F0807F9A6A18BF1F2012F4002F9A6AC3
:1039B00018BF212012F4802F9A6A18BF222012F417
:1039C000003F9A6A18BF232012F4803F9A6A6FEA78
:1039D000024218BF24206FEA12429A62704700BF69
:1039E00000ED00E0194B024610B5986A9C6A10F48D
:1039F000805F14BF1720162014F4006F9C6A18BF54
:103A00001820A40509D5986B986A000404D51AB14A
:103A10009A6A22F400429A6219200C4B9A6A12F4B4
:103A2000806F9A6A18BF1A20D2050CD49B6A13F4CF
:103A3000005F18BF1C20054A936A43F47F439362DA
:103A400000230B7010BD1B20F5E700BF00ED00E068
:103A5000484BF0B55B688BB004460025C3F3080300
:103A600085F31188BFF36F8F02F07F40B0F17F4F75
:103A700011D102F00C0008280DD010074CBF0C46E5
:103A800001250022033B8DF80720032B05D8DFE832
:103A900003F0256468612C46F3E700239DF80720B6
:103AA000D2B902AE04F120072068083454F8041C8F
:103AB0003246BC4203C21646F6D1099A002D54D0B4
:103AC000C2F3080121B96FEA52226FEA4222099239
:103AD00002A9184604F075F80BB0F0BD254BDA6A60
:103AE0009107DAD4DA6A002AD7DBDA6A5200D4D531
:103AF0005A69A16942F480725A61BFF34F8FBFF3D4
:103B00006F8F5A6931F8021C22F480725A61BFF338
:103B10004F8FBFF36F8F4DF6027291420AD09A6AAF
:103B2000D2B24AB10DF1070201212046FFF7E0FEB3
:103B30000346B3E72368B1E79A6A12F47F4F05D0D2
:103B40000DF107010120FFF74DFFF1E79B6AB3F587
:103B5000803FA2D3FFF71CFFEAE70DF10702002127
:103B6000E3E70DF107010020EDE722F4FF7222F0F8
:103B70000102ACE700ED00E0024A536943F0100394
:103B80005361704700ED00E0EFF30880EFF3098127
:103B900001B57246FFF75CFF01BD00BFFEF766FD91
:103BA000102080F3118808484FF40461401880F316
:103BB0000988EFF314800221084380F31488BFF3CF
:103BC0006F8F00F0A3F8000000962020084B9B6840
:103BD00083420BD1EFF3058343B1064B5A6842F0A1
:103BE00080525A605A6A22F400425A6205F0FCBBC5
:103BF0005C91202000ED00E0094A6FF00A01936813
:103C00009967084958674B6843F080534B6000231D
:103C100083F31188BFF36F8F9368986F704700BF6D
:103C20005C91202000ED00E010B50446EFF3118315
:103C3000102383F31288BFF36F8F0A4B4FF000629B
:103C400058699860084B5A60084B026F1A6000224E
:103C5000436F426783F31188BFF36F8F00F040F921
:103C6000204610BD5C91202000ED00E0C48E202095
:103C70000B498A684FF030001044EFF3098C80E85C
:103C8000F01F74467046FFF7CFFFA64604498A68C6
:103C900002F1300090E8F01F8CF3098870470000B3
:103CA0005C9120201EF0040F0CBFEFF30880EFF3AF
:103CB0000980816911F8021C0229FFD001B503F0C7
:103CC00086FF01BD40B2002807DB0123410900F057
:103CD0001F00024A834042F82130704700E100E0B3
:103CE00040B2013100284FEA0111C9B206DB00F1F0
:103CF000604000F5614080F80013704700F00F004D
:103D0000014B1954704700BF14ED00E00F4A08B58D
:103D100022F07F020E4B9A60BFF34F8FBFF36F8F7D
:103D2000D3F8882022F47002C3F88820EFF31483BC
:103D300023F0040383F31488BFF36F8F01F0B0FF07
:103D400002F036FF00F05AF801F0F8FF00200060A2
:103D500000ED00E042F8203C203A009B0749536008
:103D6000019B21F001019360029B9161D3604FF0B0
:103D70008073D36100230265436770471D2500608F
:103D8000094A0346906870B113F1160F006E05D012
:103D9000A0F140029A4205D8834203D2814228BF53
:103DA00000207047002070475C91202015460C4A87
:103DB0000E4608B50B4B9060026F1A6000F090F849
:103DC0002C4686F309884FF00000074B98472046A1
:103DD0004FF000014FF000024FF00003034C20476A
:103DE0005C912020C48E2020ED7B00601D250060AA
:103DF000014B10221A61704700ED00E000230448D7
:103E00001021C2180133502B82F80013F9D17047EA
:103E100000E100E008B5EFF30583064A103B02EB32
:103E2000C30152F8330049688847BDE80840FFF7EE
:103E30004BBD00BF50970060154A70B5536913F42D
:103E4000803323D1C2F88430BFF34F8FD2F8803053
:103E500043F6E074C3F3C900C3F34E335B0103EAD6
:103E60000406014646EA81750139C2F86052F9D26A
:103E7000203B13F1200FF2D1BFF34F8F536943F46E
:103E800080335361BFF34F8FBFF36F8F70BD00BF9F
:103E900000ED00E00B4B5A6912F4003211D1BFF370
:103EA0004F8FBFF36F8FC3F85022BFF34F8FBFF315
:103EB0006F8F5A6942F400325A61BFF34F8FBFF3DC
:103EC0006F8F704700ED00E0024B0221024A034869
:103ED00000F076B80000212000002020609A0060E9
:103EE000026E4021044B403A18461A60034AC3E967
:103EF0000112012100F06EB8C88E202000000B15C1
:103F0000084AC2F898000B6823F01F03034343F0EC
:103F10001003C2F89C308B6843F00103C2F8A03054
:103F2000704700BF00ED00E02DE9F0430E4685B07C
:103F30001F4604464FF00009DFF85480B14523DAEC
:103F40006068D8B13FB1411E08421BD11F2819D962
:103F50002368194216D12368019303F05BFEA3681E
:103F60000343D0B20393D8F89050C5F30725013D21
:103F7000A84207D801A9FFF7C3FF421C09F10109B4
:103F80000C34DBE76FF01502104605B0BDE8F08396
:103F900000ED00E0044B0522C3F89420BFF34F8FDF
:103FA000BFF36F8F704700BF00ED00E0BFF35F8F7E
:103FB000024B0022C3F89420704700BF00ED00E0E0
:103FC00010B5034C01232278FFF7AEFF207010BD1F
:103FD000A89120200B4A08B500231278FFF7A4FF10
:103FE00010F1160F07D0084A0021D2F89030C3F321
:103FF0000723984200DB08BDC2F898000130C2F8E0
:10400000A010F2E7A891202000ED00E066492DE91C
:10401000F043664C85B0D1F890302268C3F3072393
:104020009A4200F2BD80FFF7C1FF4B69DB031ED54A
:104030000023C1F88430BFF34F8FD1F8803043F6AE
:10404000E075C3F3C900C3F34E335B0103EA050710
:10405000024647EA8276013AC1F87462F9D2203BFF
:1040600013F1200FF2D1BFF34F8FBFF36F8F0020FA
:1040700025680C26A8421AD34D4C68464D4F257032
:10408000FEF702FB00250646DFF81C81DFF82891C9
:10409000AE4213D1237800204349D1F89020C2F3D7
:1040A0000722934276DB0020FFF774FF42E061684D
:1040B00006FB0011FFF724FF0130DBE700984FEA11
:1040C000051C00EB0511CB683B40B3F5000F48D051
:1040D0000AD8B3F5001F30D0B3F5800F36D0B3F552
:1040E000801F10D00135D3E7B3F1807F42D0B3F108
:1040F000007FF7D150F80C30886803F08BFD4A68D8
:1041000040F4802009E050F80C30886803F082FD0C
:1041100040F088504A6840F4302003902078CDE980
:104120000123D8F89030C3F30723013B98422AD9E2
:104130006FF0150005B0BDE8F08350F80C308868CA
:1041400003F068FD4A6840EA0900E6E750F80C30E1
:10415000886803F05FFD40F0E0604A6840F400309A
:10416000DBE750F80C30886803F054FD4A6840F0F3
:104170008270D2E750F80C30886803F04BFD4A6833
:1041800040F08870C9E701A9FFF7BAFE2378013330
:104190002370A7E7C1F898300133C1F8A0007CE78D
:1041A0004FF0FF30C6E700BF00ED00E0E09900608F
:1041B000A89120200000F0FF0000081108B5024B74
:1041C0001B689847002008BDD48E2020034B044A6A
:1041D0001860937843F0020393707047D48E2020C8
:1041E000CC8220200649074821F00701C1F1005286
:1041F00008B502F5041203F06DFA002008BD00BFF7
:10420000BFB02020D88E2020014804F035BD00BF6B
:104210004084202010B58AB00022002300241249D7
:10422000CDE906236FF00D034FF4806201F588603D
:104230000094CDE90334CDE901440C4B02F04EF972
:104240000B490C4804F0EDFF09AA21460A4803F087
:1042500083FE002805DB099B22461979186803F0C4
:104260008EFE0AB010BD00BF408520207D42006058
:104270008FA00060808920207C9A0060F0B5674D97
:1042800087B0674C4FF0FF324FF0FF3303A9284649
:1042900001F01EFE9DF81420A2F11003052B6BD82F
:1042A000DFE803F00360656A6A5B0026E3680E21BD
:1042B000A068324684F8D4605B6998473246D4F8E7
:1042C000DC301344997D6FF341019975D4F8DC30EB
:1042D00013441832997DB2F5C07F6FF300019975D0
:1042E000EDD14027D4F8DC30002601AA9F820221BC
:1042F000E368A0685B6901978DF808609847D4F877
:10430000DC300221A0689A7D66F341029A75D4F8E8
:10431000DC20937D43F001039375802301AA8DF87F
:104320000630D4F8DC309F85E3685B699847D4F8A1
:10433000DC303146012093F82E2066F3410283F8E9
:104340002E20D4F8DC2092F82E3043F0010382F8BE
:104350002E30D4F8D830984794E70021D4F8D830DC
:104360000846F8E7D4F8D83000210520F3E7D4F860
:10437000D83000210620EEE7D30903EB420303F017
:10438000FF030F2B47D8D4F8DC7003EB430303AAD9
:1043900007EBC30603CA47F8330071601068B060CA
:1043A000D4F8DC1001EBC3031E7AF20902EB4602DB
:1043B00002F0FF00D2B202EB4202D70001EBC202D0
:1043C000917D6FF3410191755A6801323FF45AAF04
:1043D0005B7AE3B933061CD594F8D43063B1012875
:1043E0000AD1E36808210F4A5B69A0689847002852
:1043F0007FF448AF84F8D4000221D4F8DC303B4489
:104400001B69002B3FF43EAF304698473AE7002146
:10441000F3E70121F1E707B0F0BD00BF20832020C2
:10442000408420201485202038B5134C134BC4F849
:10443000DC3094F8E030D3B9114B04F10802214686
:104440000220E36001F08CFA054690B90246012192
:104450001920FFF745FC1920FFF734FC01232A46F9
:10446000294684F8E030E368A0685B69984700203B
:1044700038BD6FF00400FBE740842020E48E20204C
:10448000849A0060084B142110B5DA6883F8D400D0
:104490009868546903F1D402A047002814BF6FF054
:1044A0001500002010BD00BF408420202DE9FF41F1
:1044B00002780446344DD3098DF80A20D5F8DC6023
:1044C00003EB420303F0FF01DBB203EB43030F29CD
:1044D0004FEAC30706EBC3064FF000038DF80C301C
:1044E0004388ADF8083003798DF80B3042D8B37D9E
:1044F00013F001083AD1EB6803218DF807200DF184
:1045000007025B69A8689847F16821B11F4804F069
:10451000D8FDC6F80C800022002361881B4804F0F7
:10452000C6FDF06048B36288002105F00DF8D5F8AB
:10453000DC30628802213B44A8689A8202AAEB68B8
:104540005B699847E0B923785A0608D11B0606D460
:10455000D5F8DC303B449A7D42F002029A75D5F8DA
:10456000DC303B449A7D42F001029A75002004B091
:10457000BDE8F0816FF01500F9E76FF00B00F6E78A
:104580006FF00400F3E700BF40842020F882202071
:10459000C30903EB400303F0FF030F2B13B58DF8A2
:1045A00007000ED8084B0421DA68986854690DF1A9
:1045B0000702A047002814BF6FF00400002002B0DB
:1045C00010BD6FF01500FAE740842020F7B5C4094C
:1045D00005468DF8070004EB400404F0FF040F2C9F
:1045E00029D8164E0DF107020521F368B0685B6902
:1045F000984718B16FF0040003B0F0BD6A0618D0F8
:104600002B0616D404EB4404D6F8DC20F3682946C4
:1046100002EBC402B068E700DC68938AD268A04766
:104620000028E7D1D6F8DC303B449A7D42F0020204
:104630009A750020E0E76FF01500DDE74084202048
:10464000C30903EB400303F0FF030F2B37B50C4600
:1046500013D891B100238DF804000B700721ADF839
:104660000630094BDA689868556901AAA84738B935
:10467000BDF80630237003B030BD6FF01500FAE7C7
:104680006FF00400F7E700BF40842020C309014613
:1046900003EB400313F0FF0370B51ED00F2B23D89C
:1046A000164C03EB4303D4F8DC20DD0002EBC3021D
:1046B000937D9E071BD4480611D00B060FD4E368E8
:1046C000A068DE68938AD268B04798B9D4F8DC3025
:1046D0002B449A7D42F002029A75002070BD937DB2
:1046E00043F002039375F8E76FF01500F6E76FF0FB
:1046F0007700F3E76FF00400F0E700BF408420206C
:1047000038B5C409014604EB400404F0FF040F2C43
:104710001ED8114DA86898B9D5F8DC3004EB4404D4
:10472000002003EBC4039A7D6FF300029A75D5F85D
:10473000DC3003EBC4039A7D6FF341029A7538BDF8
:10474000EB681B6998470028E6D06FF00400F6E795
:104750006FF01500F3E700BF40842020F8B5C409CE
:1047600015461E4604EB400404F0FF040F2C1FD82E
:1047700003061DD5114F04EB4404D7F8DC3003EBDE
:10478000C4039C8ADA68AC4228BF2C460025AC42A0
:104790000AD1FB680146B8689D682346A84750B90E
:1047A00006B134600020F8BD4B5D53550135EEE78E
:1047B0006FF01500F7E76FF00400F4E74084202065
:1047C000F0B5C4092E4E04EB4004D6F8DC7004F0BA
:1047D000FF0EE4B204EB44044FEAC40C07EBC4043C
:1047E000A57D15F0020548D1BEF10F0F02D96FF07B
:1047F0001500F0BD10F0800FF9D149B157F80CC089
:1048000067687C1C0DD1002BF1D000221A60EEE706
:10481000002AECD16268511CF5D003B11A60002067
:10482000E7E797422C4628BF1746A7420ED103B1AF
:104830001C600028F3D1D6F8DC30587A196890B1A2
:10484000CB8843B9002386F8E130E8E71CF8045030
:104850000D550134E9E791F90030002B01DA01230D
:10486000F1E70223EFE796F8E1100029D7D0A24242
:10487000E8D99B8A9C42E5D3D1E76FF00F00B8E7F7
:1048800040842020C309014603EB400303F0FF03EB
:104890000F2B70B524D8020622D4164C03EB430329
:1048A000D4F8DC20DD0002EBC302937D9B071AD411
:1048B00030B994F8E1308BB1012B08BF84F8E100E6
:1048C000E368A068DE68938AD268B04770B9D4F80C
:1048D000DC302B449A7D42F002029A75002070BDB4
:1048E0006FF01500FBE76FF00F00F8E76FF00400C2
:1048F000F5E700BF40842020C30903EB400000F02F
:10490000FF000F280CD8084B93F8E02042B100EBD1
:104910004000D3F8DC3003EBC0030020196170477E
:104920006FF01500704700BF40842020014BC3F892
:10493000D800704740842020C30903EB400000F0FA
:10494000FF000F289FBF064B00EB4000D3F8DC3080
:1049500003EBC00394BF988A6FF01500704700BF47
:104960004084202008B500220023024801F060FAAC
:10497000002008BD20832020B1F5407F38B51446C3
:1049800004D0B1F5706F25D0002038BD134D6B6A8F
:1049900013F0C00F0DD1124800F070FA6B6A0622B6
:1049A00003F03F03B0FBF2F00133B0FBF3F0206003
:1049B000EAE70C4BD3F87032DB0609D40A4B1A68CD
:1049C0006B6A03F03F030133B2FBF3F22260DBE7D3
:1049D000064AF5E7002000F0F7FBE8E700C00F40CB
:1049E0000D00100000800D40BC90202000366E01AC
:1049F00008B5074804F0DFFA38B10648FFF7E6FBD0
:104A00000448FDF76DFD002008BD6FF01200FBE7C4
:104A1000D8960060194A00600A2838B50446074D48
:104A200004D1AB680D2128465B689847AB68E1B2BA
:104A300002485B689847204638BD00BFD8960060A2
:104A400073B51A4C0829D4F8306428BF0821D4F86B
:104A50003054D4F83024D4F830342D0A12021B0616
:104A600005F47F4502F47F0243EA16632B431343A8
:104A70000093D4F82064D4F82054D4F82024D4F837
:104A800020342C0A1B0604F47F4443EA16632343B4
:104A900014020A4604F47F0423430C46694601933A
:104AA00004F044FD204602B070BD00BF00401F402E
:104AB000124B03F1780252E8002F42F00C0203F18E
:104AC000780040E800210029F3D103F1700252E898
:104AD000002F42F0300203F1700040E8002100296D
:104AE000F3D103F1780252E8002F42F0300203F1D3
:104AF000780141E800200028F3D1704700C00F4042
:104B00004FF0E0230F4910B59C691A6908689B694A
:104B100002F480320C4934B993B903464AB90A68A1
:104B20001044C01A10BD002B08BF03460AB9A342A7
:104B3000F5D90A6802440A604FF0E0221269EEE7F4
:104B40000446F3E7B4902020B09020200A4B1022B6
:104B5000002083F823204CF25032084B1A604CF2AC
:104B60004F32074B18604FF0E0235A6198611A6981
:104B700042F007021A61704700ED00E0B490202077
:104B8000B090202010B5FFF7BBFF1049104B08680C
:104B9000D3E90042001942F10002C3E900020D4AC4
:104BA00000230B604CF25033D2E90041001BB0FBF4
:104BB000F3F043431B1941F10001C2E9003102F057
:104BC000E9F8BDE81040FEF77FBE00BFB09020209E
:104BD000A88A2020A08A20202DE9F041DFF8E0807B
:104BE00099B1421C0BD14FF0E022136923F001036D
:104BF00013614FF07F43C8F80030BDE8F081D8F86A
:104C00000060012807DC00270BE0431CD8F8006097
:104C1000F7D14FF4A77040F24F139842A8BF18463F
:104C2000471EEFF31185102383F31288BFF36F8FB4
:104C3000FFF766FF234C4FF0E0239969D4E9002386
:104C400080184FF0000243F10003C4E900031E4B3B
:104C50001A601E4B1A68831A2ED44CF2503C0CFB7F
:104C6000073303F543434F33B3FBFCF7131A40F606
:104C700035420CFB0733934238BF1346144A934224
:104C800028BF1346C8F800304FF0E022013B90697E
:104C90005361002381429361A1EB0003D4E9001228
:104CA00038BF9B195B1842F10002C4E9003285F35A
:104CB0001188BFF36F8FA0E740F63543E2E700BFEE
:104CC000B4902020A88A2020B0902020A08A202004
:104CD00060D2FE0038B5EFF31185102383F31288FC
:104CE000BFF36F8F084B1C68084B1B68E41AFFF773
:104CF00007FF85F31188BFF36F8F4CF250332044C8
:104D0000B0FBF3F038BD00BFA88A2020A08A202085
:104D100038B5EFF31185102383F31288BFF36F8F3B
:104D2000044B1C68FFF7ECFE85F31188BFF36F8F0F
:104D3000204438BDA88A2020044BD3F87032DB060B
:104D400002D4034B186870470248704700800D403A
:104D5000BC90202000366E01104AD2F8803043F01B
:104D60000303C2F88030A2F5C032D2F8403143F0DC
:104D70000203C2F840310A4B00BF013BFCD1094A93
:104D80000120D2F8203123F4F85323F0010343F437
:104D9000B85343F00103C2F82031704700C00F4000
:104DA000801A060000800D400F4A437811699B036A
:104DB00021F4E0319BB20B4343F48033136111695A
:104DC000037821F441515B0021F0020103F002035A
:104DD0000B4343F4415313611369002BFCDA13694D
:104DE00023F480331361704700800D4008B50E4BEB
:104DF0001A69920414D51A6942F040021A610B4BE9
:104E000001201A6B22F000421A631A6B22F08042D2
:104E10001A6300221A601A6B42F4C6121A6308BDA4
:104E20000348FFF7C1FFEAE700800D4000900D4006
:104E3000F1A00060104A0379D2F8E0109B0321F43E
:104E4000E0319BB20B4343F48033C2F8E030D2F838
:104E5000E030417823F4805343EA8153C2F8E030D4
:104E6000D2F8E030002BFBDAD2F8E03023F48033C4
:104E7000C2F8E030704700BF00800D40C0F30B4126
:104E8000024600F01F0001F1804101F5582170B584
:104E90000B68C340D80716D50B6813F4404F15D1E3
:104EA000FFF74AFF04460B6813F480330CD12A49FC
:104EB0008A422AD00CD8A1F5C0018A421CD001F543
:104EC00000118A4209D00024204670BD0024EAE780
:104ED000224B9A42F7D1224CF6E7224D286D2A6EDA
:104EE000A4FB0001FDF74CF92B6BDB074CBF16232D
:104EF000142363431C18E7E71A4B1B6913F0020FD6
:104F00000CBF142316235C43DEE7164D2E6FD5F835
:104F10008000D5F8902006F07F06A4FB0001FDF785
:104F20002FF92B6F664313F4C01306EB00040DD06A
:104F3000B3F5002F0CD0D5F870310B4A1340B3F500
:104F4000004F07D09342BFD1A408BDE7A408F2E701
:104F50006408F0E76408B7E70D0070001600E00091
:104F60000065CD1D00800D4000808000044BDB6893
:104F7000DB0702D40348FFF781BF0348704700BF37
:104F800000C00F400D00100000366E0110B5044641
:104F90001348FFF773FF032C1FD8DFE804F0020C5F
:104FA0001218104BD3F8003103F03F03B0FBF3F0BD
:104FB0001223584310BD0B4BD3F80031C3F3052324
:104FC000F4E7084BD3F80031C3F30543EEE7054B94
:104FD000D3F80031C3F30563E8E70020E8E700BF3A
:104FE0000D00300000800D4010B504461348FFF757
:104FF00045FF032C1FD8DFE804F0020C1218104BF9
:10500000D3F8F03003F03F03B0FBF3F01223584322
:1050100010BD0B4BD3F8F030C3F30523F4E7084B76
:10502000D3F8F030C3F30543EEE7054BD3F8F03087
:10503000C3F30563E8E70020E8E700BF0D001000B8
:1050400000800D4008B51D4B58699B6910F0007039
:1050500018D003F44053B3F5805F07D0B3F5005F79
:105060000ED043BB1648FFF709FF01E0FFF764FECF
:10507000124B5B69C3F382230133B0FBF3F008BD2D
:105080001048F0E703F44023B3F5002F0FD008D801
:10509000002BF5D0B3F5802FEAD10320FFF7A4FF52
:1050A000E6E7094AB3F5402F08BF1046E0E70320C2
:1050B000FFF76CFFDCE70020DAE700BF00C00F401D
:1050C0000D0010000D0030000065CD1D08B5FFF784
:1050D000B9FF044B5B69C3F301230133B0FBF3F069
:1050E00008BD00BF00C00F4010B5084CE3695B0667
:1050F00008D5FFF721FEE36903F03F030133B0FB5E
:10510000F3F010BDFFF7E2FFF5E700BF00C00F406E
:1051100008B514284ED8DFE800F00E0E12161A0B50
:105120001E23282A2C3C3E434547494B2E3236004D
:105130004FF4004008BDBDE80840FFF783BFBDE85D
:105140000840FFF7C3BFBDE80840FFF7CDBFBDE88B
:105150000840FFF7F1BD1848BDE80840FFF78EBED4
:105160000020BDE80840FFF73FBF0120F9E702201B
:10517000F7E70320F5E7BDE80840FFF7F7BEFFF7C4
:10518000F5FEC008D6E7FFF7F1FE0623B0FBF3F00B
:10519000D0E70A48E0E70020BDE80840FFF7F6BE88
:1051A0000120F9E70220F7E70320F5E70448D3E7F9
:1051B0000448D1E70020BDE70D0010000D003000CD
:1051C0001600E0000D00700038B5364A364B52F834
:1051D000304002EBC00253F820305568DAB202F1D9
:1051E000804202F57C221168C3F30422C3F34C33DE
:1051F00093400B40D3402D4A02EB8002D05C15282F
:1052000035D12B4B9B6903F44053B3F5805F08D035
:10521000B3F5005F29D0002B42D12648FFF72EFEC0
:1052200001E0FFF789FD7CB1E3B2C4F3042203F18E
:10523000804303F57C231968C4F34C3393400B403F
:10524000D3400133B0FBF3F0EBB2C5F3042203F11A
:10525000804303F57C231968C5F34C3393400B401E
:10526000D3400133B0FBF3F038BD1348D6E716281E
:1052700013D10F4BD869C0F34170022806D0032820
:1052800007D00128F1D1FFF771FECCE7FFF77EFED2
:10529000C9E70020FFF7A8FEC5E7FFF739FFC2E71F
:1052A0000020C0E7A89F0060F09F0060F3A00060AE
:1052B00000C00F400D0010000D0030002D492E4A97
:1052C00008B50B8923F001031B041B0C0B81138908
:1052D00023F001031B041B0C13810B88580705D511
:1052E0000B8823F004031B041B0C0B8013885B0743
:1052F00005D5138823F004031B041B0C13801F4BDC
:105300001A68900430D51E4A5A604FF6FF729A60B0
:105310001A6822F0A00242F020021A604FF0E02347
:105320001A69D10703D51A6922F001021A61154BD7
:105330005A69920315D45A6912F4003211D1BFF39D
:105340004F8FBFF36F8FC3F85022BFF34F8FBFF360
:105350006F8F5A6942F400325A61BFF34F8FBFF327
:105360006F8F03F0C5F908BD4CF220525A604DF61C
:105370002812C9E700800B4000000D4000C00B4020
:1053800020C528D900ED00E000F01F02084B000AFC
:10539000914003EB800003239340DA4310B550E8BB
:1053A000003F13400B4340E80034002CF7D110BD00
:1053B00068C00F40B0B10C4B98420ED003F580434B
:1053C00098420CD003F5804398420AD003F58043FD
:1053D000984214BF05200420704701207047022026
:1053E00070470320704700BF004018402DE9F84F78
:1053F0004FF00A090B68002704460D4609FB02FA24
:105400004FEA83089E464FF0040C3E4641F6FF7B70
:10541000BAFBF8F105319844B1FBF9F189B259456D
:1054200028BF5946012938BF01210CFB01F0B2FB0E
:10543000F0F0834234BFC01A181A704598BF5FFA63
:105440008CF70CF1010C9CBF86460E46BCF1210F77
:10545000DED16422B3FBF2F303EB43037345C0F0E8
:105460008C8020460321FFF7A5FF454B33F9100040
:10547000FFF78AFFA3683A1F013F43F00203032AA4
:105480004FEA0767A360A36807F0F85723F0020309
:10549000A360236998BF43F4003323F01F2323F054
:1054A000FF033B4333432361236923F0005323610C
:1054B000A369EA7B23F4E2632979120223F007034C
:1054C00002F4E0620B431A43AB7B9B0003F004033E
:1054D00013436A79012A4BD1002946D023F4006393
:1054E000A361EB7922695B0322F4005203F40053B9
:1054F000134323616A7A2B7A43EA0243E362A36A85
:1055000043F08803A362A36A43F44043A3626B7B26
:105510002A7B1B01616A520103F0100302F0200292
:1055200013430B436362AB7A1BB1636A43F0080316
:105530006362EB7A1BB1636A43F001036362A9798A
:10554000104B114A002918BF1A466369134363615F
:105550002A7CA3690AB143F400236A7C0AB143F4AC
:1055600080230020A361BDE8F88F43F40063B7E710
:105570000029B5D043F01003B2E740F22150F2E722
:105580002CA0006000C01FE000C01FC008B5C36AA7
:1055900013F4E06FFBD143695B02FCD54369002142
:1055A00043F0C02343F4F81343618161FFF702FF26
:1055B000034B33F91000BDE80840FFF7E5BE00BF1C
:1055C0002CA0006081690269084B120A0B4002F0AE
:1055D00040021A430369806A1B0A00F4407003F01A
:1055E0008003134323F440731843704700C3F00F44
:1055F0004269836A03481B0C03F0C303134318403A
:10560000704700BFC3C0FFC110B58B070C4C04EA44
:10561000010407D0826A230422F4703203F4403379
:1056200013438362436903F0785323434361FFF7D5
:10563000DFFF204240F21A5008BF002010BD00BF1B
:1056400003C01FC0012810D9831EDBB2012B07D96C
:10565000831FDBB2012B03D90A38C3B2012B04D854
:10566000002B034818BF002070470020704700BF80
:1056700000900D402DE9F04F4D0085B0044605F037
:105680001E050392CA0945EAD1150092002800F0D0
:10569000F88082684FEA851C02EB851292F8382068
:1056A00012F00102019202D090F8960018B1012088
:1056B00005B0BDE8F08F03F57F523F32B2F5804F61
:1056C0002CBF920B0122EFF3118E102686F3128865
:1056D000BFF36F8F94F89460964205D28EF31188D1
:1056E000BFF36F8F0220E3E74FF0000804EB85055E
:1056F000C1462269B3F5804F02931E46176828BF42
:105700004FF48046B9F1000F08BF934627619B1BF9
:1057100094F8947007F1FF3784F894704FF0010704
:1057200017604FF000075760039F4F4497609768DA
:1057300007F5805727F47F6727F00F07D760D768F2
:1057400007F580571761176907F580575761576943
:1057500007F580579761576866F31E475760D7690A
:10576000D2F808A066F31E37CAF30B0AD76127F0F8
:10577000004727F47F6727F00F0747EA0A07D7613A
:1057800003D1576847F40047576057684FF0800AC5
:10579000B1446AF3070757606F6D002F36D03A6047
:1057A0006A65002BA5D111F00F021CD1009DD5B167
:1057B000A56805EB0C0797F83870BF0713D5029F53
:1057C0008FB1EF8EB7420ED955F80C70C7F30A4768
:1057D000B6FBF7F907FB19662EB955F80C6063F3B1
:1057E0005D7645F80C60C908012301F010011143F2
:1057F0008B40B8F1000F23D16268D2F8B0211A4271
:1058000008D08EF31188BFF36F8F51E7DDF8048065
:105810006A61C5E76168D1F8402142F48042C1F86D
:1058200040216268D2F8B851D2F840114904F1D54C
:10583000D2F840112B4221F48041C2F84011E0D14E
:10584000A26800216244C2F808B0A2686244D16034
:10585000BFF34F8F0C496268C2F8B0316268D2F86A
:10586000B8511D42CDD1013904D18EF31188BFF357
:105870006F8F1CE7D2F8BC511D42C2D1C2F8B031C3
:10588000ECE7032014E700BF809698002DE9FF475E
:1058900002EB4109002641EAC211054600EB8908E6
:1058A000DFF8B8A04FEA8919D8F81440CFB224F035
:1058B0001F04CDE9016614B904B0BDE8F087019B6F
:1058C0003BB9A368A28B03EA0A03C2F30B0213439A
:1058D000019363681A0639D46268E369C2F30E4221
:1058E000C3F312339B1A029A1344D8F8542002933C
:1058F000D8F8143093422CD1C8F814600122C8F8AB
:105900005460AB684B449A60AB684B44DE6063689C
:105910001B0403D4D8F814301F2B09D801A9286818
:105920008DF80C708DF80D60FFF71CF8CDE901665D
:1059300066602B69236095F894302C61013385F8FB
:105940009430D8F8144024F01F04B4E74FF0FF332C
:10595000CBE71B68C8F81430D9E700BF00F0FFFFA1
:10596000022870B5164635D11C4B1D7815B103259C
:10597000284670BD01221A4C1A701A4B84F8970001
:10598000E360194BA360194B6360D3F8402142F0E8
:105990000202C3F84021D3F840219207FBD4D3F888
:1059A000242102F01F0012F0180F84F8950013D084
:1059B0002160D3F8A8210A4822F00302C3F8A821E5
:1059C000D3F8A82142F00202C3F8A82102F03DFF5B
:1059D0003460CDE70625CBE70125C9E7A991202052
:1059E000C0902020004020200048202000400E4091
:1059F00008B9032070470D4B984202D10C4B00228E
:105A00001A7042680023C2F848314168D1F8402139
:105A100022F00102C1F8402141681846D1F8402126
:105A200042F00202C1F84021704700BFC090202020
:105A3000A99120202DE9FF47CB0801F00F02012595
:105A400003F0100313434A0002F01E029D4042EA95
:105A5000D112002800F09080EFF3118C102383F313
:105A60001288BFF36F8F4FF0FF33002417B200EBA3
:105A70008202CDE90143536923F01F03CBB9546976
:105A80009A46DFF8F8E024F01F04C4B982680125C3
:105A900002EB87129560826802EB8712D4608CF368
:105AA0001188BFF36F8F002B5CD1002004B0BDE8DC
:105AB000F087DC7F44F08004DC771B68DCE794F936
:105AC0001F80B8F1000FEADAD4F8048018F0800FD4
:105AD00013D0D0F80490D9F8B48148EA0508C9F881
:105AE000B481D0F80480D8F8B49119EA050FFAD13E
:105AF000D8F8B88118EA050FEAE7019E5EB9D4F834
:105B00000880B4F81C9008EA0E08C9F30B0948EAAB
:105B10000908CDF80480D2F81480566DB0451AD12A
:105B2000C2F814A0C2F854A0D4F8048018F4004FAE
:105B300016D156691F2E98BF0123C4F804A0066928
:105B40002660046190F89440013480F894405469D0
:105B500024F01F0499E7D8F80080C2F81480E3E726
:105B60000123EAE700238DF80C10006801A98DF8E5
:105B70000D30FEF7F7FE98E7032097E700F0FFFFF0
:105B800038B5EFF31185102383F31288BFF36F8FBD
:105B9000064B9C6803F022FA85F31188BFF36F8FE0
:105BA0002046BDE83840FEF711B800BF5C912020C8
:105BB00038B5094B53F82040013053F82050A54226
:105BC00000D838BD636823B1204603F00AFA0834D0
:105BD000F5E723689847FAE714A000602B4B0122F1
:105BE000032070B52A4C86B02A4D1A70FFF7E0FFEB
:105BF00001F052F903F011FA0420FFF7D9FF26460D
:105C00003034AE4210D3224C00F05AFE224EAC4249
:105C100026D300F069FEFCF725FC204A137B23F015
:105C20000103137306B070BD54F80C3C059354F88F
:105C3000103C049354F8143C039354F8183C02931A
:105C400054F81C3C019354F8203C009354E90A2377
:105C500054E90C0100F0F4FB54F8303C5E65CEE7EB
:105C6000D4E90A23B3F1FF3F08BFB2F1FF3F05D0EB
:105C700052EA0301206803D103F0D6FA3034C6E7B4
:105C80003146183001F00CF8F8E700BFAA91202047
:105C9000D0990060D099006055930060308B20202F
:105CA00006480021064A08B5121A03F0B2F9054861
:105CB000054A0021121A03F0ACF908BD40842020E7
:105CC000AC912020000000200000002070B50023CF
:105CD00086B00122144E01930446144D06EBC01603
:105CE0001349CDE904230F22CDE9023214234FF4E6
:105CF000A07203FB00554FF4C0700E4B00FB041163
:105D00003046009500F09CFB737B0B4A23F00403A4
:105D1000EE602C7473734FF4046304FB0333134479
:105D20006B6006B070BD00BFB08A20205C9120205F
:105D3000409E2020FB90006000962020BFB50020F0
:105D4000FFF736FF294B83F30888294D0024F02301
:105D5000284E294F85F82230EC772C766C76AC767D
:105D600085F820406B6A43F4E0236B62FDF704FF83
:105D7000FEF73EF84FF0FF33AB62EB62FEF746F9F9
:105D80001E4DFEF7A1F81E4B40F20112B3609A813E
:105D9000DC66C3E9184403F00DF90120FFF708FFA2
:105DA0000220FFF705FF00F0BFFD164B75614FF4B1
:105DB000806205930123144928460094CDE90343EA
:105DC000CDE901443B4600F03BFB6A7B0646284692
:105DD00022F004026A7303F063FA2046FFF776FFAD
:105DE0003A4631462846FDF7E1FF00BF409E20209D
:105DF00000ED00E05C912020DD5B0060308B202016
:105E0000B08B202017A10060C09F202038B5064C21
:105E1000064DAC4201D3002038BDD4E90112204622
:105E2000143403F0FBF8F4E7F88220200C832020E0
:105E30002DE9F34104460E4600F10808EFF31187FF
:105E4000102181F31288BFF36F8F056AC1688D42FC
:105E50002AD203F083FAA2680546314678B10024BD
:105E6000406903F063FB2846AC6703F019FA40462B
:105E7000394600F0E1FC204602B0BDE8F081E0695F
:105E800003F054FBE369A268002013446269934263
:105E9000E36104BF2369E361236A0133236287F36B
:105EA0001188BFF36F8FE7E752EA03010AD0074971
:105EB00089684E613946CDE900230246404600F02C
:105EC0004BFCD9E76FF02200E9E700BF5C9120208E
:105ED000F7B50446084604F10807EFF311861021D0
:105EE00081F31288BFF36F8F216A002931D0A26835
:105EF000A16903F01BFBA369A268204613446269F1
:105F00009342A36104BF2369A361236A013B236217
:105F100003F024FA054660B34169A268E06903F022
:105F200005FBE369A2682846134462699342E36172
:105F300004BF2369E361236A013323620024AC6751
:105F400003F0AEF93846314600F076FC204603B047
:105F5000F0BD52EA03010AD0084989684861314618
:105F60003846CDE90023224600F0F6FBEFE76FF05C
:105F7000220086F31188BFF36F8FE8E75C91202041
:105F80002DE9F341044617461E46EFF3118810230E
:105F900083F31288BFF36F8FC368334A7BB1806885
:105FA0009168884219D057EA060318D188F31188FE
:105FB000BFF36F8F6FF00F0002B0BDE8F081916802
:105FC00091F90E1001332161E3609368A36088F3B7
:105FD0001188BFF36F8F0020EEE72169F2E791F996
:105FE0000E106FF07E0290F90E309942A8BF19464C
:105FF0009142B8BF11468B422DDD03F089F805466A
:10600000224641461948CDE9007600F0A5FB00285C
:10601000E1D0EFF31186102383F31288BFF36F8F63
:10602000A068D0B1236821699C420AD04BB193F992
:106030000E309942A8BF19466FF07E039942B8BF4F
:10604000194603F065F840B13146084800F0F4FB0A
:106050006FF00A00B0E70025D2E7002DF4D186F3F7
:106060001188BFF36F8FF3E75C912020AB91202064
:1060700038B58368044663B3194A926893422BD1BA
:10608000C368012B03D9013BC360002038BDEFF387
:106090001185102383F31288BFF36F8F0169806825
:1060A00003F036F8204603F059F9A06058B190F992
:1060B0000E2022610022826703F0F2F82946094887
:1060C00000F0BAFBE1E7E06085F31188BFF36F8F62
:1060D000DBE76FF01500D9E74FF0FF30D6E700BFE0
:1060E0005C912020AB91202038B50446EFF3118558
:1060F000102383F31288BFF36F8F03F02FF948B199
:106100000022826703F0CCF829460848BDE83840F1
:1061100000F092BBD4E902329A4218BF0133A36067
:1061200085F31188BFF36F8F38BD00BFAB9120207E
:1061300013B5EFF31181102484F31288BFF36F8F2E
:10614000846844B1013C846081F31188BFF36F8F90
:10615000002002B010BD52EA030406D181F3118879
:10616000BFF36F8F6FF00F00F3E7CDE90023024616
:10617000014800F0F1FAECE7AB9120202DE9F04363
:10618000054685B0DFF830814FF0FF364FF0FF371E
:10619000EFF31189102383F31288BFF36F8FD5F8C3
:1061A00080408CB9022105F1980002F0CCFF002854
:1061B00060D1002305F18802494640480293CDE9A9
:1061C000006700F05DFCE3E7D5F884202368944283
:1061D000C5F8803008BFC5F88430D5F8983043F052
:1061E0000203C5F89830E36823F0040343F0010389
:1061F000E360636889F31188BFF36F8F2046984787
:10620000EFF31189102383F31288BFF36F8FE368D4
:10621000D90623F0010237D4E260E3689A071AD561
:1062200023F00203D8F80000E360A0B10268002167
:1062300088B143689C4237D1036869BBD8F8042011
:10624000C8F80030824201D1C8F80430002340F879
:10625000083BFFF749FFD5F8983023F00203C5F853
:10626000983089F31188BFF36F8FDB0590D400F06D
:1062700063FB8DE705F1900400220121204603F025
:10628000D5F80028F8D194E723F01103E36004F176
:106290001000FFF729FFC0E70B60D8F804308342F5
:1062A00008BFC8F80410D1E722B1136801461046B0
:1062B0001A46BDE71346F9E77C912020AB912020D8
:1062C000F8B5C36804460F469A07C3F340062BD4BB
:1062D0005B0719D40B680BB983680B60E368DD07B3
:1062E00045BFA368022601263B603D68002D3AD0D9
:1062F0001E4B9B68AB420AD0D5F89830D807C3F341
:10630000800214D46FF0120600233B6025E002F0F7
:1063100082FFD5F898300028F0D1D907C3F3C00226
:10632000F0D552B15B0708D46FF00F06ECE7002AF6
:10633000FAD1C3F3C003002BF6D100232360D5F8B4
:10634000843063B9C5E92044284602F007FFE368BA
:1063500043F00403E3603B68A3603046F8BD1C6073
:10636000C5F88440F0E76FF01506CDE75C9120207A
:10637000F0B50446002089B0C4E9200004F188008B
:106380000E9DC4E9220004F19000C4E924004DB33D
:106390002879002840F2011008BF0120C4F89800B5
:1063A00000204FF0FF364FF0FF370094CDE9033067
:1063B000CDE901000C4B2046CDE9066700F08EF8D0
:1063C00055B1296811B1204602F02BFF6B791BB142
:1063D000237B43F001032373204609B0BDE8F0405E
:1063E00002F022BF0120D9E77D61006037B501903E
:1063F0000846EFF31184102181F31288BFF36F8FE9
:10640000C16811F01E0F17D153EA020508D101A986
:10641000FFF756FF84F31188BFF36F8F03B030BDD1
:1064200041F00801103040F8041C019981610349D2
:1064300000F036FC0120EDE70020EBE76B910060F7
:1064400007322DE9F04322F0070285B00E461F46C1
:10645000109900F158037F3204460173042122F0A1
:106460003F0206F1400941733F2AA2F14008C0E90A
:1064700016334FF0000383600F98E373A073C4E9F1
:10648000063305D883F31188BFF36F8F084602DF08
:10649000B51820462946FDF7F7F907300E9B31461F
:1064A00020F00700C4E91898A0662D1A0293204630
:1064B0000D9B2A4601930C9B00933B46FDF74AFC3B
:1064C00000236365044B9B6803B1DB6E2846E366DB
:1064D00005B0BDE8F08300BF5C912020F0B5002539
:1064E00087B004460595109D04950F9D03950E9D5C
:1064F00002950D9D01950C9DDDE912760095FFF743
:106500009FFFB6F1FF3F08BFB7F1FF3F05D056EA46
:10651000070305D1204600F0A1F9204607B0F0BDE1
:106520003A463346024904F1180000F0B9FBF4E79B
:106530005593006038B50D4D2B4653F8184F9C42CB
:1065400000D004B9EC68AB6838B95A7BD20604D1E4
:10655000A26912B9DA897F2A05D89C4202D0204666
:1065600000F0CEFA23466B6138BD00BF5C9120205D
:1065700008B590F90D200146437B002A04DA03F0A8
:106580007F03437302F052FE044B9868431A58424B
:106590005841BDE80840FFF7CDBF00BF5C91202007
:1065A00070B490F90D30427B002B29DBD30627D144
:1065B00083692BBB62F07F02124942730A4652F88C
:1065C000184F944218BF2346CC6923B9C0E9002470
:1065D0002060C8610CE090F90E5093F90E60B5424E
:1065E0000AD0AE4208DD5A68C0E900321060586037
:1065F000002070BCFFF79EBF9C42E7D01B68E4E719
:1066000070BC70475C912020002A2DE9F0410E46B5
:10661000427B0CBF10210821044611420FD141EAF0
:106620000203D20918D1437308291BD00120FFF7B8
:1066300081FFBFF35F8F637B23F060036373274B9E
:106640009B68A34243D1EFF30583002B3FD1304633
:10665000BDE8F041FDF7D0BA03F07F03437302F0C9
:10666000E5FDE1E7A36813B1204602F0E7FD04F180
:10667000180004F1580702F0FBFEA56DAF4211D0DF
:106680004FF0000875B1284602F0D8FD05F118005A
:1066900002F0EEFE2846C5F87880FFF781FFA56D71
:1066A000AF42EFD10D4DAB689C42BFD1EFF30583F4
:1066B000002BBBD00120FFF73DFF094B40F2011238
:1066C000AB609A810022C3E91822DA66B1E786F34B
:1066D0001188BFF36F8FBDE8F08100BF5C9120206F
:1066E000B08B202070B590F90D200146437B002A25
:1066F00004DA03F07F03437302F098FD4B7B154AE5
:1067000063F07F0310464B7350F8183FD4698342FF
:1067100008BF002323B9C1E900042160D1610CE066
:1067200091F90E5093F90E60B5420ED0AE420CDDD9
:106730005868C1E90030016059609068431A5842B6
:10674000BDE870405841FFF7F5BE9C42E3D01B689E
:10675000E0E700BF5C912020F8B5124B0C461146D3
:10676000114A9868DDE906761060EFF31182102275
:1067700082F31288BFF36F8F9D68284602F068FD90
:10678000B6F1FF3F08BFB7F1FF3F06D03A463346A8
:10679000064905F1180000F083FA2046BDE8F840EC
:1067A000FDF72ABA5C912020849120205593006047
:1067B000F8B50446EFF31186102383F31288BFF374
:1067C0006F8F437B49B2DA0619D18569BDB903F0F1
:1067D0007F03437302F02AFD437B164A63F07F0375
:1067E00081734373134653F8180F984218BF054638
:1067F000D0695DB9C4E900300460D46111E00020C3
:10680000A17386F31188BFF36F8FF8BD95F90E70F1
:10681000B9420BD08F4209DD6B68C4E900531C609C
:106820006C600120FFF786FE0120EAE7A842E1D074
:106830002D68DEE75C91202049B9EFF3058030B97F
:10684000054B5A699B689A4201D0FDF7D5B981F38F
:106850001188BFF36F8F70475C91202010B5EFF364
:106860001184102282F31288BFF36F8F427B51078D
:1068700004D484F31188BFF36F8F10BD22F004029B
:106880004273FFF78DFE21460248BDE81040FFF736
:10689000D3BF00BFAB912020034648B9EFF3058278
:1068A00032B9064A51699268914201D0FDF7A4B904
:1068B00083F31188BFF36F8F704700BF5C91202076
:1068C000EFF31181102383F31288BFF36F8F054B11
:1068D0009A68D37B013BD37381F31188BFF36F8F29
:1068E000704700BF5C91202038B5EFF3118510246C
:1068F00084F31288BFF36F8F0A4B00209A68D37B12
:106900000133D373FFF716FE85F31188BFF36F8F42
:10691000EFF3118084F31288BFF36F8FBDE8384026
:10692000FFF7BABF5C912020024B03F11802C3E9C4
:10693000062270475C912020F8B5EFF311851023F3
:1069400083F31288BFF36F8F19498868437B03F084
:106950007F03437302F06AFC8B6808465A7B62F03F
:106960007F025A7350F8182FCC69824208BF002268
:1069700022B9C3E900042360CB610CE093F90E60F7
:1069800092F90E70BE420ED0B7420CDD5168C3E9D9
:1069900000210B6053600120FFF7CCFD2846BDE8C5
:1069A000F840FDF729B9A242E3D01268E0E700BF42
:1069B0005C91202050EA01032DE9F04105460E4686
:1069C00003D1FFF7B9FF00202BE0831C71F1FF33E7
:1069D00029DB02F062FD2C18EFF31188102383F3FA
:1069E0001288BFF36F8F124F124BB8681860FFF711
:1069F000BFFDB8682A4610493346183000F050F9F8
:106A0000BA684046537B43F010035373FDF7F4F824
:106A100002F043FD201A63EB0303012873F1000326
:106A2000D1DBBDE8F0816FF00104241AD4E700BF88
:106A30005C9120208491202055930060B1F1FF3FAC
:106A400008BFB0F1FF3F08B506D1094B986802F0C6
:106A500036FC4FF0FF3008BDFFF7ACFF0A22C1172C
:106A600009304FF0000341F10001FBF789FBF2E729
:106A70005C912020014B9868704700BF5C912020FA
:106A8000D3B5DDE90667089CCDE90067FFF764FE32
:106A90001CB1034B9B685B69236002B0D0BD00BF93
:106AA0005C912020044B0122C01A044BC0105843B3
:106AB000034B1A54704700BF308C2020ABAAAAAAFF
:106AC000AB912020C3897F2B12D80A4B1B6863B17E
:106AD000094B90F90E201B689A4209DB437BDB06C9
:106AE00006D1064BC31A18BF012303F001007047FB
:106AF0000023FAE78C91202088912020B08A202062
:106B00000E4B70B51E7C05460D4C06EB460304EBA0
:106B1000C304204602F0ACFC0A4B002228469A55DA
:106B2000FFF7D0FF48B1084B204608491A68013AE0
:106B3000BDE87040D31700F0B3B870BD5C91202061
:106B4000308C2020AB9120208C912020A56A006001
:106B500038B5EFF31185102383F31288BFF36F8FDD
:106B6000104B114A9C681068A04206D1FFF7C8FF7D
:106B700085F31188BFF36F8F38BD00211B7C116036
:106B80000A4AD35C002BF3D02046FFF79BFF002876
:106B9000EED0637BDB0602D12046FFF7A3FD204643
:106BA000E4E700BF5C91202084912020AB9120205D
:106BB0000C480D4A0D49121A08B502F02CFA0C4A7D
:106BC0000C490D4802F027FA0C4A0D490D4802F015
:106BD00022FA0D480D4A0E49121ABDE8084002F08B
:106BE0001ABA00BF008020202884202070A10060F5
:106BF0000000000070A10060008020200000000064
:106C000098A50060000000000000002000000020A7
:106C100098A50060034B1B680BB9FEF75BB800201A
:106C2000704700BF9091202030B570B10B4B5B686E
:106C300098420AD0036843B1D3E90421D0E904455E
:106C4000121941EB0501C3E90421D0E900321360B8
:106C50005A600023C0E9003330BD00BFDC82202031
:106C60000E4B10B51C689C4204D1FFF7D3FF6FF0A8
:106C7000004010BDFFF7CEFF002CF8D0D4E904325D
:106C80001B1A62EBE072B3F1004F72F10001EEDA11
:106C9000002AACBF18460020EBE700BFDC822020B2
:106CA000B3F1FF3F08BFB2F1FF3FF8B504461D4600
:106CB00016465ED08160EFF31187102383F31288AC
:106CC000BFF36F8F013275F1FF3324DA2E496FF075
:106CD0000103D1E900209B1A4FF0FF3262EB000064
:106CE0009E1B60EB0500012E70F1000301DA012606
:106CF0000020C4E90460254ED6F800C07568B4458C
:106D000008BF4FF0000CBCF1000F0DD1C4E90065C5
:106D10002C6074601CE0FFF77DFF013645F1000533
:106D2000361845EBE070E4E7DCE90420D4E90431EF
:106D3000934271EB000E1DDAD21ADCF8043060EBDE
:106D40000100CCE90420C4E900C31C60CCF8044075
:106D50003368B34209D09C4207D10D4B1C6824B95B
:106D6000FFF77EFF2146FDF737FF87F31188BFF35A
:106D70006F8FF8BD9B1A61EB0001AC45C4E904318B
:106D8000C4D0DCF800C0BEE7488C2020DC82202084
:106D9000909120202DE9F84FEFF3118C102383F30D
:106DA0001288BFF36F8FDFF8B4A00024DFF8B09033
:106DB00000252C4FC9F80000DAF80000504508BF44
:106DC0000020D9F80030E046D7E9002178B34FEA37
:106DD000E37ED0E9046CB3427EEB0C0B05DAF61AC5
:106DE0006CEB0E04C0E9046421E0B21841EBE671DB
:106DF000C0E90445C7E90021FFF716FF88F31188B1
:106E0000BFF36F8F83689847EFF31188102383F3E4
:106E10001288BFF36F8FD9F80030C446DAF800004B
:106E20009B1B5045C9F80030CBD1D7E900219A18F7
:106E30004FF0000441EBE373C9F80040C7E90023B9
:106E4000FFF70EFF2146FDF7C7FE88F31188BFF359
:106E50006F8FBDE8F84FFFF77BBE00BFDC822020BC
:106E600090912020488C202010B5EFF3118410233E
:106E700083F31288BFF36F8FFFF7CCFE054A0346FA
:106E8000D2E90001181841EBE37184F31188BFF3D4
:106E90006F8F10BD488C2020014800F05ABC00BF05
:106EA0001CA100601FB5094A02AB92E803004FF431
:106EB000806283E8030000934FF0FF3304490548E4
:106EC000FFF756FA002005B05DF804FBD09900608A
:106ED00000A42020508C20200FB407B5064B04AA34
:106EE000186852F8041B019200F008F803B05DF82E
:106EF00004EB04B0704700BF789A00602DE9F04FB2
:106F00008DB043680293837815469A07804640F116
:106F10000D8100240E78002E00F00A81252E0BD062
:106F20004B1C03930134029B41463046984700288E
:106F3000C0F2F6800399EDE74E788B1C252E039363
:106F4000F0D00027B946BB46BBF11F0F38D8A6F1D9
:106F50002003102B0AD8DFE803F02A0909300909B9
:106F6000092109090928092D09091F00A6F1300383
:106F7000092B33D92A2E37D11BF0400F55F8043B8B
:106F800040F08280002BA7BF4BF0200B9946C3F145
:106F900000094BF0280B01E04BF0010B039B13F8A9
:106FA000016B0393002ECFD130E04BF0020B4BF07E
:106FB000040BF3E74BF0080BF0E74BF0100BEDE799
:106FC000BBF17F0F19D8A6F13003092BD2D81BF0E3
:106FD000400F03D00A2101FB0737DFE70A2101FB3D
:106FE00009394BF0200BD9E72E2E06D11BF0400FAC
:106FF00040F09E804BF0400BD0E76C2E31D02BD868
:10700000682E36D06A2E3CD04C2E3AD0002F46F057
:107010002003B8BF2BF04002A3F16501BCBF1FFAEB
:1070200082FB0027022901D9612B2FD1073525F0DA
:107030000705DFF8ACA2083507271BF0080F66D05C
:107040000AEB070B56465E4563D1A4EB0A0A06EB32
:107050000A02A9EB07096FE1742E9FD07A2E9DD00A
:10706000D4E71BF0800F18BF4BF4007B4BF0800B74
:1070700094E71BF4807F18BF4BF4007B4BF4807BBC
:107080008CE74BF4207B89E71F4687E7A6F1630175
:10709000122900F2F080DFE811F013004F00EE003B
:1070A000EE00EE00EE004F00EE00EE00EE00EE000F
:1070B000EE00FE00E900EE00EE001B00EE00AF0067
:1070C00055F8043B8DF8183001270DF1180AB4E784
:1070D00055F804AB834BBAF1000F08BF9A461BF07A
:1070E000400F14BF39464FF0FF31504602F034FADA
:1070F0000746A2E7029B41462020984700280FDB65
:10710000013EB742F6D34C44A41BB14698E74E4625
:10711000F7E716F8010B029B41469847002892DAE0
:1071200098F8023043F0040388F802304FF0FF343F
:1071300020460DB0BDE8F08F1BF0800F34D01BF45B
:10714000007F2CD0073525F00705AA4669685AF854
:10715000080B2BF010050029ADB237DA404261EB85
:10716000410145F480650DF1180B0A235A4602F0DF
:10717000FFF9A0EB0B0301936B0662D5019B25F091
:1071800001019F4289B240F3A180002E00F0998056
:1071900015F0100240F09C80BB460D4623E0AA4645
:1071A0005AF8040BC117D4E7AA461BF4807F5AF89B
:1071B000041B01D10846F5E71BF4007F15BF48B258
:1071C00008B241F3C01141F3C031C2E750EA0103F4
:1071D000C9D11BF0400FC6D0002FC4D12BF0110233
:1071E00095B2BB46019740F2064115EA01021CBF69
:1071F0000BF1010B00222CE02BF010021FFA82FB96
:107200000A231BF0800C49D01BF400711DBF073509
:1072100025F00705AA46AA461ABF5AF8080B69685E
:107220005AF8040B50EA010545D12BF016051BF066
:10723000400FADB242D0002F40D12BF0170295B2D3
:10724000019715F0100248D0019B002E42D103F1A6
:10725000010B29075AD4EB0706D5D9456FDD0199F3
:10726000A9EB0B035F18CB465B4649E04BF0100BD4
:1072700010237826C5E7782B04D1C6F1780343F0B4
:107280001003BEE7029B4146252098470028FFF6E1
:1072900047AF023447E608230026B2E7AA461BF4AC
:1072A00080715AF8040BBDD01BF400711ABFC0B234
:1072B000614680B2B6E72BF0060295B20DF1180BCD
:1072C00054E725F01105ADB2BB468CE70D46B8E793
:1072D0003B460D4603F1020BBBE7DDF804B082E745
:1072E00066A100605FA10060CDE904324146029BC7
:1072F000202098470028FFF613AF049B059A01331E
:107300009945F1DCA4EB0B01CC189B460AB3029B18
:107310004146302098470028FFF602AF8EB901346D
:107320002744019B391B994224DC1D465DBB019A11
:10733000A9EB0B09224455461446914435E0019FC0
:1073400092E7023441463046029B98470028E7DA2C
:10735000E6E640F206410D42E2D015F0020F14BFFE
:107360002B20202015F4806F04F10104414618BF42
:107370002D20E9E7029B414630209847002804F180
:107380000104CEDACCE606AB013D4146585D029BD6
:1073900098470028CADAC3E6029B41462020984756
:1073A000002804F10104FFF6BBAEA9EB0403002B97
:1073B000F2DCBFE5704700EBC10040884008704731
:1073C000F8B50346FFF7F7FFB0FA80F0CA000C46A5
:1073D0008DB2C0F11F00171D063203EB800CDCF8E4
:1073E000106056B9012101FA00F0D9680143D96053
:1073F000CCF81040DD539D52F8BDF1000431585ACD
:10740000D85303EBC0009E52C5805D52F4E710B51F
:1074100000EBC104E388994202F104010AD101237F
:1074200003FA02F2C36823EA0203C360002340F8B0
:10743000213010BDA28840F8213000EBC20100EBE2
:10744000C300CB808280F4E708B50346FFF7B3FFA3
:10745000B0FA80F21846C2F11F02BDE80840FFF7FB
:10746000D6BF2DE9F843B1FA81F503460E46C5F1C2
:107470001F0900EB8908D8F81020C2B10327D8F8FB
:10748000104018462146FFF796FFB04206D34A4601
:107490001846FFF7BCFF2046BDE8F88303EBC404A1
:1074A000013FE088C8F8100001D08242E7D1C5F161
:1074B00020024FF0FF349440DA681440EBD094FA85
:1074C000A4F2B2FA82F2111D53F821402146DFE7FF
:1074D00038B50346FFF76FFF04460D4618461146C0
:1074E000FFF769FF044403EBC50560006880184698
:1074F000FFF761FF014423F8314038BD38B50C4631
:107500000346FFF758FF511AA51A03EBC4040544BC
:107510004800608003EBC2006C004480184623F8EA
:1075200032101146FFF747FF014423F8315038BDB0
:1075300038B505460C46FFF73EFF014405EBC10395
:107540005B88DA070AD42846FFF77EFF21462846E3
:10755000FFF731FF22182846FFF7BAFF35F834103D
:10756000611A05EBC1035B88DB070CD42846FFF7E3
:107570006BFF35F8341022462846611AFFF7A8FF42
:1075800035F83430E41A21462846BDE83840FFF784
:1075900017BF61B100680439091A21F00703C9084F
:1075A00003445A8822F001025A80FFF7C1BF704796
:1075B00070B5056809B9002070BDAB68B3EBD10F99
:1075C000F9D90B312846CC082146FFF74AFF064679
:1075D0000028F0D001462846FFF7EDFEA04207D96B
:1075E00032192846FFF78AFF28461146FFF7E8FEC2
:1075F00005EBC6025388104643F001030430538064
:10760000DAE72DE9F84301F1FF390F461446066821
:1076100019EA01090CD04B424F460B40042B1A4685
:10762000994628BF042264B900252846BDE8F8839E
:10763000042904D81146BDE8F843FFF7B9BF042276
:10764000F1E7B368B3EBD40FEED904F10B01304688
:107650003944891AC908FFF704FF80460028E3D09F
:1076600009F104057B1E05EBC00535441D44B5FB3F
:10767000F7F57D43A5EB09052C442B1F07349B1B15
:1076800024F00704B0EBD30F4FEAD307A4EB0604B2
:107690004FEAE40408D201463A463046FFF72EFF8F
:1076A00041463046FFF78CFE39463046FFF783FEF1
:1076B0003844844207D230462246FFF71FFF214656
:1076C0003046FFF77DFE06EBC706738843F00103E3
:1076D0007380AAE7043A2DE9F041CC1D11444FF024
:1076E000000824F0070421F007010E1B0460414646
:1076F00004F11000F708C4F80C80B7FA87F2A7600D
:10770000C2F12405C2F12002AD009200073501F05C
:107710001BFFA4F800802046ED086B0004EBC502B7
:1077200043F0010363807B1B59005180A21924F8A8
:1077300035502946A2F80280A35304EBC7035A88A8
:1077400042F001025A80BDE8F041FFF739BE002047
:1077500070470FB407B504A951F8040B0191FAF76B
:10776000C5FE03B05DF804EB04B07047F0B5044605
:10777000C369C668944645684069AF1B281ABB4276
:10778000A3EB00029CBFFF1AF6186245A3EB0700AB
:10779000A5EB060528BF6246236890422B4428BF0C
:1077A00010460B60636803446360F0BDD0E90123B9
:1077B000D21A8A420CD31944C368C269C0E90111C4
:1077C000C91A8A4201D9002070471344C360FAE7FE
:1077D0006FF0150070472DE9F34180460E461546BF
:1077E00000272A4601A94046FFF7C0FF044602468B
:1077F00031460198274401F099FE2D1B264401D003
:10780000002CEED139464046FFF7D0FF384602B093
